{
  "contractName": "Merchant",
  "abi": [
    {
      "constant": true,
      "inputs": [
        {
          "name": "",
          "type": "uint256"
        },
        {
          "name": "",
          "type": "uint256"
        }
      ],
      "name": "pdBalance",
      "outputs": [
        {
          "name": "",
          "type": "uint256"
        }
      ],
      "payable": false,
      "stateMutability": "view",
      "type": "function"
    },
    {
      "constant": true,
      "inputs": [],
      "name": "feeDenominator",
      "outputs": [
        {
          "name": "",
          "type": "uint256"
        }
      ],
      "payable": false,
      "stateMutability": "view",
      "type": "function"
    },
    {
      "constant": true,
      "inputs": [
        {
          "name": "",
          "type": "address"
        }
      ],
      "name": "customers",
      "outputs": [
        {
          "name": "",
          "type": "uint256"
        }
      ],
      "payable": false,
      "stateMutability": "view",
      "type": "function"
    },
    {
      "constant": true,
      "inputs": [
        {
          "name": "",
          "type": "uint256"
        }
      ],
      "name": "remittance",
      "outputs": [
        {
          "name": "",
          "type": "uint256"
        }
      ],
      "payable": false,
      "stateMutability": "view",
      "type": "function"
    },
    {
      "constant": true,
      "inputs": [
        {
          "name": "",
          "type": "uint256"
        },
        {
          "name": "",
          "type": "uint256"
        }
      ],
      "name": "rtBalance",
      "outputs": [
        {
          "name": "",
          "type": "uint256"
        }
      ],
      "payable": false,
      "stateMutability": "view",
      "type": "function"
    },
    {
      "constant": true,
      "inputs": [
        {
          "name": "",
          "type": "uint256"
        },
        {
          "name": "",
          "type": "uint256"
        }
      ],
      "name": "request",
      "outputs": [
        {
          "name": "merchantID",
          "type": "uint256"
        },
        {
          "name": "amount",
          "type": "uint256"
        },
        {
          "name": "paid",
          "type": "bool"
        }
      ],
      "payable": false,
      "stateMutability": "view",
      "type": "function"
    },
    {
      "constant": true,
      "inputs": [
        {
          "name": "",
          "type": "address"
        }
      ],
      "name": "merchantID",
      "outputs": [
        {
          "name": "",
          "type": "uint256"
        }
      ],
      "payable": false,
      "stateMutability": "view",
      "type": "function"
    },
    {
      "constant": true,
      "inputs": [],
      "name": "contractID",
      "outputs": [
        {
          "name": "",
          "type": "uint256"
        }
      ],
      "payable": false,
      "stateMutability": "view",
      "type": "function"
    },
    {
      "constant": true,
      "inputs": [
        {
          "name": "",
          "type": "uint256"
        }
      ],
      "name": "merchants",
      "outputs": [
        {
          "name": "mName",
          "type": "string"
        },
        {
          "name": "mAddress",
          "type": "address"
        },
        {
          "name": "mLevel",
          "type": "uint256"
        },
        {
          "name": "directSales",
          "type": "uint256"
        },
        {
          "name": "creditSales",
          "type": "uint256"
        },
        {
          "name": "vIssued",
          "type": "uint256"
        },
        {
          "name": "vMinBuy",
          "type": "uint256"
        },
        {
          "name": "vSold",
          "type": "uint256"
        },
        {
          "name": "vRemitted",
          "type": "uint256"
        },
        {
          "name": "vRedeemed",
          "type": "uint256"
        },
        {
          "name": "vDiscount",
          "type": "uint256"
        },
        {
          "name": "vTenor",
          "type": "uint256"
        }
      ],
      "payable": false,
      "stateMutability": "view",
      "type": "function"
    },
    {
      "constant": true,
      "inputs": [],
      "name": "minAmount",
      "outputs": [
        {
          "name": "",
          "type": "uint256"
        }
      ],
      "payable": false,
      "stateMutability": "view",
      "type": "function"
    },
    {
      "constant": true,
      "inputs": [],
      "name": "fee",
      "outputs": [
        {
          "name": "",
          "type": "uint256"
        }
      ],
      "payable": false,
      "stateMutability": "view",
      "type": "function"
    },
    {
      "inputs": [],
      "payable": false,
      "stateMutability": "nonpayable",
      "type": "constructor"
    },
    {
      "anonymous": false,
      "inputs": [
        {
          "indexed": true,
          "name": "token",
          "type": "address"
        },
        {
          "indexed": true,
          "name": "registry",
          "type": "address"
        },
        {
          "indexed": false,
          "name": "contractID",
          "type": "uint256"
        }
      ],
      "name": "SetTokenAndRegistry",
      "type": "event"
    },
    {
      "anonymous": false,
      "inputs": [
        {
          "indexed": true,
          "name": "buyer",
          "type": "address"
        },
        {
          "indexed": true,
          "name": "merchantID",
          "type": "uint256"
        },
        {
          "indexed": false,
          "name": "amount",
          "type": "uint256"
        }
      ],
      "name": "VoucherBought",
      "type": "event"
    },
    {
      "anonymous": false,
      "inputs": [
        {
          "indexed": true,
          "name": "buyer",
          "type": "address"
        },
        {
          "indexed": true,
          "name": "merchantID",
          "type": "uint256"
        },
        {
          "indexed": false,
          "name": "amount",
          "type": "uint256"
        }
      ],
      "name": "VoucherRedeemed",
      "type": "event"
    },
    {
      "anonymous": false,
      "inputs": [
        {
          "indexed": true,
          "name": "merchantID",
          "type": "uint256"
        },
        {
          "indexed": true,
          "name": "senderID",
          "type": "uint256"
        },
        {
          "indexed": false,
          "name": "receiverID",
          "type": "uint256"
        },
        {
          "indexed": false,
          "name": "amount",
          "type": "uint256"
        }
      ],
      "name": "VoucherShared",
      "type": "event"
    },
    {
      "anonymous": false,
      "inputs": [
        {
          "indexed": true,
          "name": "merchantID",
          "type": "uint256"
        },
        {
          "indexed": false,
          "name": "customerID",
          "type": "uint256"
        },
        {
          "indexed": false,
          "name": "amount",
          "type": "uint256"
        }
      ],
      "name": "RequestRedemption",
      "type": "event"
    },
    {
      "anonymous": false,
      "inputs": [
        {
          "indexed": true,
          "name": "_from",
          "type": "address"
        },
        {
          "indexed": true,
          "name": "_to",
          "type": "address"
        },
        {
          "indexed": false,
          "name": "_value",
          "type": "uint256"
        }
      ],
      "name": "Transfer",
      "type": "event"
    },
    {
      "constant": false,
      "inputs": [
        {
          "name": "receiver",
          "type": "address"
        },
        {
          "name": "amount",
          "type": "uint256"
        }
      ],
      "name": "sendCoin",
      "outputs": [
        {
          "name": "sufficient",
          "type": "bool"
        }
      ],
      "payable": false,
      "stateMutability": "nonpayable",
      "type": "function"
    },
    {
      "constant": true,
      "inputs": [
        {
          "name": "addr",
          "type": "address"
        }
      ],
      "name": "getBalance",
      "outputs": [
        {
          "name": "",
          "type": "uint256"
        }
      ],
      "payable": false,
      "stateMutability": "view",
      "type": "function"
    },
    {
      "constant": true,
      "inputs": [
        {
          "name": "addr",
          "type": "address"
        }
      ],
      "name": "getCustomerStatus",
      "outputs": [
        {
          "name": "",
          "type": "bool"
        }
      ],
      "payable": false,
      "stateMutability": "view",
      "type": "function"
    },
    {
      "constant": false,
      "inputs": [
        {
          "name": "addr",
          "type": "address"
        }
      ],
      "name": "addNewAddress",
      "outputs": [
        {
          "name": "",
          "type": "bool"
        }
      ],
      "payable": false,
      "stateMutability": "nonpayable",
      "type": "function"
    },
    {
      "constant": false,
      "inputs": [
        {
          "name": "_minAmount",
          "type": "uint256"
        }
      ],
      "name": "setMinimums",
      "outputs": [],
      "payable": false,
      "stateMutability": "nonpayable",
      "type": "function"
    },
    {
      "constant": false,
      "inputs": [
        {
          "name": "_remittance",
          "type": "uint256[]"
        }
      ],
      "name": "setRemittance",
      "outputs": [],
      "payable": false,
      "stateMutability": "nonpayable",
      "type": "function"
    },
    {
      "constant": false,
      "inputs": [
        {
          "name": "_mName",
          "type": "string"
        },
        {
          "name": "_owner",
          "type": "address"
        },
        {
          "name": "_level",
          "type": "uint256"
        }
      ],
      "name": "newMarchant",
      "outputs": [
        {
          "name": "",
          "type": "bool"
        }
      ],
      "payable": false,
      "stateMutability": "nonpayable",
      "type": "function"
    },
    {
      "constant": false,
      "inputs": [
        {
          "name": "_merchantID",
          "type": "uint256"
        },
        {
          "name": "_newAddress",
          "type": "address"
        }
      ],
      "name": "changeMerchantAddress",
      "outputs": [
        {
          "name": "",
          "type": "bool"
        }
      ],
      "payable": false,
      "stateMutability": "nonpayable",
      "type": "function"
    },
    {
      "constant": false,
      "inputs": [],
      "name": "newCustomer",
      "outputs": [
        {
          "name": "",
          "type": "bool"
        }
      ],
      "payable": false,
      "stateMutability": "nonpayable",
      "type": "function"
    },
    {
      "constant": false,
      "inputs": [
        {
          "name": "_newAddress",
          "type": "address"
        }
      ],
      "name": "changeCustomerAddress",
      "outputs": [
        {
          "name": "",
          "type": "bool"
        }
      ],
      "payable": false,
      "stateMutability": "nonpayable",
      "type": "function"
    },
    {
      "constant": false,
      "inputs": [
        {
          "name": "_merchantID",
          "type": "uint256"
        },
        {
          "name": "_amountIssued",
          "type": "uint256"
        },
        {
          "name": "_minBuy",
          "type": "uint256"
        },
        {
          "name": "_discount",
          "type": "uint256"
        },
        {
          "name": "_tenorDays",
          "type": "uint256"
        }
      ],
      "name": "createOffers",
      "outputs": [
        {
          "name": "",
          "type": "bool"
        }
      ],
      "payable": false,
      "stateMutability": "nonpayable",
      "type": "function"
    },
    {
      "constant": false,
      "inputs": [
        {
          "name": "_merchantID",
          "type": "uint256"
        },
        {
          "name": "_rAmountIssued",
          "type": "uint256"
        },
        {
          "name": "_rMinBuy",
          "type": "uint256"
        },
        {
          "name": "_rDiscount",
          "type": "uint256"
        },
        {
          "name": "_rTenorDays",
          "type": "uint256"
        }
      ],
      "name": "reviseOffers",
      "outputs": [],
      "payable": false,
      "stateMutability": "nonpayable",
      "type": "function"
    },
    {
      "constant": false,
      "inputs": [
        {
          "name": "_merchantID",
          "type": "uint256"
        },
        {
          "name": "_amount",
          "type": "uint256"
        }
      ],
      "name": "buyVoucher",
      "outputs": [
        {
          "name": "",
          "type": "bool"
        }
      ],
      "payable": false,
      "stateMutability": "nonpayable",
      "type": "function"
    },
    {
      "constant": false,
      "inputs": [
        {
          "name": "_merchantID",
          "type": "uint256"
        },
        {
          "name": "_amount",
          "type": "uint256"
        }
      ],
      "name": "redeemVoucherOnline",
      "outputs": [
        {
          "name": "",
          "type": "bool"
        }
      ],
      "payable": false,
      "stateMutability": "nonpayable",
      "type": "function"
    },
    {
      "constant": false,
      "inputs": [
        {
          "name": "_merchantID",
          "type": "uint256"
        },
        {
          "name": "_customerID",
          "type": "uint256"
        },
        {
          "name": "_amount",
          "type": "uint256"
        }
      ],
      "name": "requestRedemption",
      "outputs": [
        {
          "name": "",
          "type": "bool"
        }
      ],
      "payable": false,
      "stateMutability": "nonpayable",
      "type": "function"
    },
    {
      "constant": false,
      "inputs": [
        {
          "name": "_requestID",
          "type": "uint256"
        }
      ],
      "name": "redeemVoucherInstore",
      "outputs": [
        {
          "name": "",
          "type": "bool"
        }
      ],
      "payable": false,
      "stateMutability": "nonpayable",
      "type": "function"
    },
    {
      "constant": false,
      "inputs": [
        {
          "name": "_merchantID",
          "type": "uint256"
        },
        {
          "name": "_receiverID",
          "type": "uint256"
        },
        {
          "name": "_amount",
          "type": "uint256"
        }
      ],
      "name": "shareVoucher",
      "outputs": [
        {
          "name": "",
          "type": "bool"
        }
      ],
      "payable": false,
      "stateMutability": "nonpayable",
      "type": "function"
    },
    {
      "constant": false,
      "inputs": [
        {
          "name": "_merchantID",
          "type": "uint256"
        },
        {
          "name": "receiverAddr",
          "type": "address"
        },
        {
          "name": "_amount",
          "type": "uint256"
        }
      ],
      "name": "shareVoucherWithAddress",
      "outputs": [
        {
          "name": "",
          "type": "bool"
        }
      ],
      "payable": false,
      "stateMutability": "nonpayable",
      "type": "function"
    },
    {
      "constant": true,
      "inputs": [
        {
          "name": "_merchantID",
          "type": "uint256"
        }
      ],
      "name": "getVoucherDetailedBalances",
      "outputs": [
        {
          "name": "",
          "type": "uint256"
        },
        {
          "name": "",
          "type": "uint256"
        },
        {
          "name": "",
          "type": "uint256"
        }
      ],
      "payable": false,
      "stateMutability": "view",
      "type": "function"
    },
    {
      "constant": true,
      "inputs": [
        {
          "name": "_merchantID",
          "type": "uint256"
        }
      ],
      "name": "getVoucherBalances",
      "outputs": [
        {
          "name": "",
          "type": "uint256"
        }
      ],
      "payable": false,
      "stateMutability": "view",
      "type": "function"
    },
    {
      "constant": true,
      "inputs": [],
      "name": "getCustomerId",
      "outputs": [
        {
          "name": "",
          "type": "uint256"
        }
      ],
      "payable": false,
      "stateMutability": "view",
      "type": "function"
    }
  ],
  "bytecode": "0x60806040526001600755612710600a556064600b55612710600c553480156200002757600080fd5b5062989680600d60003373ffffffffffffffffffffffffffffffffffffffff1673ffffffffffffffffffffffffffffffffffffffff1681526020019081526020016000208190555060606040519081016040528061232861ffff168152602001611d4c61ffff16815260200161138861ffff168152506001906003620000af929190620006a6565b50600160066000737dd147674e79df3f3b88c2bdfb1e4af9bc73c57a73ffffffffffffffffffffffffffffffffffffffff1673ffffffffffffffffffffffffffffffffffffffff168152602001908152602001600020819055506002600660007304ec558aa3205a74673902ae754c87fc8d8cbed273ffffffffffffffffffffffffffffffffffffffff1673ffffffffffffffffffffffffffffffffffffffff1681526020019081526020016000208190555060036007819055506002610180604051908101604052806040805190810160405280600981526020017f45676f204f776e65720000000000000000000000000000000000000000000000815250815260200173142e98a282aea6ceee893f4c1ad256068b1cd31e73ffffffffffffffffffffffffffffffffffffffff16815260200160008152602001600081526020016000815260200160008152602001600081526020016000815260200160008152602001600081526020016000815260200160008152509080600181540180825580915050906001820390600052602060002090600c020160009091929091909150600082015181600001908051906020019062000271929190620006fe565b5060208201518160010160006101000a81548173ffffffffffffffffffffffffffffffffffffffff021916908373ffffffffffffffffffffffffffffffffffffffff16021790555060408201518160020155606082015181600301556080820151816004015560a0820151816005015560c0820151816006015560e082015181600701556101008201518160080155610120820151816009015561014082015181600a015561016082015181600b01555050506002610180604051908101604052806040805190810160405280600f81526020017f536e616c20536e61696c2053686f700000000000000000000000000000000000815250815260200173ac515d20ac2fdc7434cce96aa5437e18d10762e573ffffffffffffffffffffffffffffffffffffffff16815260200160018152602001600081526020016000815260200162989680815260200161271081526020016000815260200160008152602001600081526020016101f4815260200160008152509080600181540180825580915050906001820390600052602060002090600c02016000909192909190915060008201518160000190805190602001906200042f929190620006fe565b5060208201518160010160006101000a81548173ffffffffffffffffffffffffffffffffffffffff021916908373ffffffffffffffffffffffffffffffffffffffff16021790555060408201518160020155606082015181600301556080820151816004015560a0820151816005015560c0820151816006015560e082015181600701556101008201518160080155610120820151816009015561014082015181600a015561016082015181600b01555050506002610180604051908101604052806040805190810160405280601581526020017f4661726d2053746f726520536e61696c2053686f7000000000000000000000008152508152602001736d28e4be25c5a12ba395c3a8af84d7119562c74373ffffffffffffffffffffffffffffffffffffffff168152602001600281526020016000815260200160008152602001621e848081526020016107d081526020016000815260200160008152602001600081526020016102bc815260200160008152509080600181540180825580915050906001820390600052602060002090600c0201600090919290919091506000820151816000019080519060200190620005ed929190620006fe565b5060208201518160010160006101000a81548173ffffffffffffffffffffffffffffffffffffffff021916908373ffffffffffffffffffffffffffffffffffffffff16021790555060408201518160020155606082015181600301556080820151816004015560a0820151816005015560c0820151816006015560e082015181600701556101008201518160080155610120820151816009015561014082015181600a015561016082015181600b0155505050620007ad565b828054828255906000526020600020908101928215620006eb579160200282015b82811115620006ea578251829061ffff16905591602001919060010190620006c7565b5b509050620006fa919062000785565b5090565b828054600181600116156101000203166002900490600052602060002090601f016020900481019282601f106200074157805160ff191683800117855562000772565b8280016001018555821562000772579182015b828111156200077157825182559160200191906001019062000754565b5b50905062000781919062000785565b5090565b620007aa91905b80821115620007a65760008160009055506001016200078c565b5090565b90565b61364b80620007bd6000396000f300608060405260043610610196576000357c0100000000000000000000000000000000000000000000000000000000900463ffffffff168063042ae8791461019b5780630e3d4c2b146101e6578063180b0d7e1461022b578063183628e11461025657806330407da3146102a557806331dfbbac146102d2578063326cd3b31461037d578063336989ae146103a85780634134bfb9146103ff5780634c56e8ca146104545780636ab150711461049557806370e0178a146104e45780637605cb9d146105135780637ae4aa151461055e5780638a4df07d146105b95780638bc802fb146106085780638cb7e2e11461066557806390b98a11146106bc57806391f30bd41461072157806392c8823b1461074c5780639b2cb5d81461086b578063a2f35f4414610896578063a967eec0146108f1578063b1fb80b314610956578063cb3de0d4146109af578063d1b83bf514610a0a578063d786bafe14610a77578063da50677614610ad0578063ddca3f4314610b3f578063de8c3f0a14610b6a578063eb1c606d14610bd0578063f8b2cb4f14610c11575b600080fd5b3480156101a757600080fd5b506101d06004803603810190808035906020019092919080359060200190929190505050610c68565b6040518082815260200191505060405180910390f35b3480156101f257600080fd5b5061021160048036038101908080359060200190929190505050610c8d565b604051808215151515815260200191505060405180910390f35b34801561023757600080fd5b506102406110fd565b6040518082815260200191505060405180910390f35b34801561026257600080fd5b5061028160048036038101908080359060200190929190505050611103565b60405180848152602001838152602001828152602001935050505060405180910390f35b3480156102b157600080fd5b506102d0600480360381019080803590602001909291905050506111c7565b005b3480156102de57600080fd5b50610363600480360381019080803590602001908201803590602001908080601f0160208091040260200160405190810160405280939291908181526020018383808284378201915050505050509192919290803573ffffffffffffffffffffffffffffffffffffffff169060200190929190803590602001909291905050506111d1565b604051808215151515815260200191505060405180910390f35b34801561038957600080fd5b506103926114c4565b6040518082815260200191505060405180910390f35b3480156103b457600080fd5b506103e9600480360381019080803573ffffffffffffffffffffffffffffffffffffffff16906020019092919050505061150b565b6040518082815260200191505060405180910390f35b34801561040b57600080fd5b506104526004803603810190808035906020019092919080359060200190929190803590602001909291908035906020019092919080359060200190929190505050611523565b005b34801561046057600080fd5b5061047f600480360381019080803590602001909291905050506118e5565b6040518082815260200191505060405180910390f35b3480156104a157600080fd5b506104ca6004803603810190808035906020019092919080359060200190929190505050611908565b604051808215151515815260200191505060405180910390f35b3480156104f057600080fd5b506104f9611c06565b604051808215151515815260200191505060405180910390f35b34801561051f57600080fd5b506105486004803603810190808035906020019092919080359060200190929190505050611d1c565b6040518082815260200191505060405180910390f35b34801561056a57600080fd5b5061059f600480360381019080803573ffffffffffffffffffffffffffffffffffffffff169060200190929190505050611d41565b604051808215151515815260200191505060405180910390f35b3480156105c557600080fd5b506105ee6004803603810190808035906020019092919080359060200190929190505050611d9d565b604051808215151515815260200191505060405180910390f35b34801561061457600080fd5b5061063d600480360381019080803590602001909291908035906020019092919050505061216f565b6040518084815260200183815260200182151515158152602001935050505060405180910390f35b34801561067157600080fd5b506106a6600480360381019080803573ffffffffffffffffffffffffffffffffffffffff1690602001909291905050506121c2565b6040518082815260200191505060405180910390f35b3480156106c857600080fd5b50610707600480360381019080803573ffffffffffffffffffffffffffffffffffffffff169060200190929190803590602001909291905050506121da565b604051808215151515815260200191505060405180910390f35b34801561072d57600080fd5b50610736612336565b6040518082815260200191505060405180910390f35b34801561075857600080fd5b506107776004803603810190808035906020019092919050505061233c565b60405180806020018d73ffffffffffffffffffffffffffffffffffffffff1673ffffffffffffffffffffffffffffffffffffffff1681526020018c81526020018b81526020018a815260200189815260200188815260200187815260200186815260200185815260200184815260200183815260200182810382528e818151815260200191508051906020019080838360005b8381101561082557808201518184015260208101905061080a565b50505050905090810190601f1680156108525780820380516001836020036101000a031916815260200191505b509d505050505050505050505050505060405180910390f35b34801561087757600080fd5b50610880612463565b6040518082815260200191505060405180910390f35b3480156108a257600080fd5b506108d7600480360381019080803573ffffffffffffffffffffffffffffffffffffffff169060200190929190505050612469565b604051808215151515815260200191505060405180910390f35b3480156108fd57600080fd5b5061093c60048036038101908080359060200190929190803573ffffffffffffffffffffffffffffffffffffffff169060200190929190505050612664565b604051808215151515815260200191505060405180910390f35b34801561096257600080fd5b506109956004803603810190808035906020019092919080359060200190929190803590602001909291905050506127c1565b604051808215151515815260200191505060405180910390f35b3480156109bb57600080fd5b506109f0600480360381019080803573ffffffffffffffffffffffffffffffffffffffff169060200190929190505050612995565b604051808215151515815260200191505060405180910390f35b348015610a1657600080fd5b50610a5d6004803603810190808035906020019092919080359060200190929190803590602001909291908035906020019092919080359060200190929190505050612b45565b604051808215151515815260200191505060405180910390f35b348015610a8357600080fd5b50610ab6600480360381019080803590602001909291908035906020019092919080359060200190929190505050612ee8565b604051808215151515815260200191505060405180910390f35b348015610adc57600080fd5b50610b2560048036038101908080359060200190929190803573ffffffffffffffffffffffffffffffffffffffff169060200190929190803590602001909291905050506130d4565b604051808215151515815260200191505060405180910390f35b348015610b4b57600080fd5b50610b54613305565b6040518082815260200191505060405180910390f35b348015610b7657600080fd5b50610bce6004803603810190808035906020019082018035906020019080806020026020016040519081016040528093929190818152602001838360200280828437820191505050505050919291929050505061330b565b005b348015610bdc57600080fd5b50610bfb6004803603810190808035906020019092919050505061339e565b6040518082815260200191505060405180910390f35b348015610c1d57600080fd5b50610c52600480360381019080803573ffffffffffffffffffffffffffffffffffffffff169060200190929190505050613457565b6040518082815260200191505060405180910390f35b6008602052816000526040600020602052806000526040600020600091509150505481565b6000806000806000600660003373ffffffffffffffffffffffffffffffffffffffff1673ffffffffffffffffffffffffffffffffffffffff1681526020019081526020016000205493506003600085815260200190815260200160002086815481101515610cf757fe5b9060005260206000209060030201925060028360000154815481101515610d1a57fe5b90600052602060002090600c020191508260020160009054906101000a900460ff16151515610db1576040517f08c379a000000000000000000000000000000000000000000000000000000000815260040180806020018281038252601b8152602001807f726571756573742070726576696f75736c7920617070726f766564000000000081525060200191505060405180910390fd5b60018360020160006101000a81548160ff0219169083151502179055508260010154610e36600960008781526020019081526020016000206000866000015481526020019081526020016000205460086000888152602001908152602001600020600087600001548152602001908152602001600020546134a090919063ffffffff16565b10151515610eac576040517f08c379a000000000000000000000000000000000000000000000000000000000815260040180806020018281038252601c8152602001807f696e73756666696369656e7420766f75636865722062616c616e63650000000081525060200191505060405180910390fd5b610ec7836001015483600901546134a090919063ffffffff16565b826009018190555082600101546008600086815260200190815260200160002060008560000154815260200190815260200160002054101515610f7457610f43836001015460086000878152602001908152602001600020600086600001548152602001908152602001600020546134be90919063ffffffff16565b6008600086815260200190815260200160002060008560000154815260200190815260200160002081905550611099565b610fb3600860008681526020019081526020016000206000856000015481526020019081526020016000205484600101546134be90919063ffffffff16565b90506000600860008681526020019081526020016000206000856000015481526020019081526020016000208190555061101e8160096000878152602001908152602001600020600086600001548152602001908152602001600020546134be90919063ffffffff16565b60096000868152602001908152602001600020600085600001548152602001908152602001600020819055506110618183600801546134a090919063ffffffff16565b82600801819055506110978260010160009054906101000a900473ffffffffffffffffffffffffffffffffffffffff16826121da565b505b82600001543373ffffffffffffffffffffffffffffffffffffffff167f90a1e756583991105b90752f00c540cfe352e38a4450d00c353b74423b1c822185600101546040518082815260200191505060405180910390a36001945050505050919050565b600c5481565b6000806000806000806000600660003373ffffffffffffffffffffffffffffffffffffffff1673ffffffffffffffffffffffffffffffffffffffff1681526020019081526020016000205493506008600085815260200190815260200160002060008981526020019081526020016000205492506009600085815260200190815260200160002060008981526020019081526020016000205491506111b182846134a090919063ffffffff16565b9050828282965096509650505050509193909250565b80600a8190555050565b600060038210151561124b576040517f08c379a00000000000000000000000000000000000000000000000000000000081526004018080602001828103825260188152602001807f5f6c6576656c2065697468657220302c20312c206f722032000000000000000081525060200191505060405180910390fd5b6000600460008573ffffffffffffffffffffffffffffffffffffffff1673ffffffffffffffffffffffffffffffffffffffff16815260200190815260200160002054141515611302576040517f08c379a00000000000000000000000000000000000000000000000000000000081526004018080602001828103825260198152602001807f6d65726368616e742070726576696f75736c792061646465640000000000000081525060200191505060405180910390fd5b600280549050600460008573ffffffffffffffffffffffffffffffffffffffff1673ffffffffffffffffffffffffffffffffffffffff168152602001908152602001600020819055506002610180604051908101604052808681526020018573ffffffffffffffffffffffffffffffffffffffff168152602001848152602001600081526020016000815260200160008152602001600081526020016000815260200160008152602001600081526020016000815260200160008152509080600181540180825580915050906001820390600052602060002090600c020160009091929091909150600082015181600001908051906020019061140692919061352d565b5060208201518160010160006101000a81548173ffffffffffffffffffffffffffffffffffffffff021916908373ffffffffffffffffffffffffffffffffffffffff16021790555060408201518160020155606082015181600301556080820151816004015560a0820151816005015560c0820151816006015560e082015181600701556101008201518160080155610120820151816009015561014082015181600a015561016082015181600b0155505050600190509392505050565b6000600660003373ffffffffffffffffffffffffffffffffffffffff1673ffffffffffffffffffffffffffffffffffffffff16815260200190815260200160002054905090565b60066020528060005260406000206000915090505481565b600060028681548110151561153457fe5b90600052602060002090600c02019050600a5485101515156115e4576040517f08c379a00000000000000000000000000000000000000000000000000000000081526004018080602001828103825260368152602001807f5f616d6f756e744973737565642063616e6e6f74206265206c6f77657220746881526020017f616e206d696e416d6f756e742f6d2e764973737565640000000000000000000081525060400191505060405180910390fd5b80600701548510151515611686576040517f08c379a00000000000000000000000000000000000000000000000000000000081526004018080602001828103825260378152602001807f5f616d6f756e744973737565642063616e6e6f74206265206c6f77657220746881526020017f616e20616c726561647920736f6c6420766f756368657200000000000000000081525060400191505060405180910390fd5b600b548310151515611726576040517f08c379a00000000000000000000000000000000000000000000000000000000081526004018080602001828103825260228152602001807f5f646973636f756e742063616e6e6f74206265206c6f776572207468616e206681526020017f656500000000000000000000000000000000000000000000000000000000000081525060400191505060405180910390fd5b61173a600a856134d790919063ffffffff16565b85101515156117d7576040517f08c379a00000000000000000000000000000000000000000000000000000000081526004018080602001828103825260318152602001807f5f6d696e4275792063616e6e6f7420626520686967686572207468616e20313081526020017f25206f6620616d6f756e7449737375656400000000000000000000000000000081525060400191505060405180910390fd5b3373ffffffffffffffffffffffffffffffffffffffff168160010160009054906101000a900473ffffffffffffffffffffffffffffffffffffffff1673ffffffffffffffffffffffffffffffffffffffff1614151561189e576040517f08c379a00000000000000000000000000000000000000000000000000000000081526004018080602001828103825260118152602001807f77726f6e67205f6d65726368616e74494400000000000000000000000000000081525060200191505060405180910390fd5b8481600501819055508381600601819055506118c5600b54846134be90919063ffffffff16565b81600a0181905550620151808202420181600b0181905550505050505050565b6001818154811015156118f457fe5b906000526020600020016000915090505481565b600080600080600080600080600060028b81548110151561192557fe5b90600052602060002090600c02019750600660003373ffffffffffffffffffffffffffffffffffffffff1673ffffffffffffffffffffffffffffffffffffffff1681526020019081526020016000205496508995506119b76119a8600c5461199a8b600a01548a6134d790919063ffffffff16565b61351290919063ffffffff16565b876134be90919063ffffffff16565b94506119e2600c546119d4600b54896134d790919063ffffffff16565b61351290919063ffffffff16565b93506119f784866134be90919063ffffffff16565b9250611a51600c54611a43611a3460018c60020154815481101515611a1857fe5b9060005260206000200154600c546134be90919063ffffffff16565b866134d790919063ffffffff16565b61351290919063ffffffff16565b9150611a6682876134be90919063ffffffff16565b9050611a9f81600860008a815260200190815260200160002060008e8152602001908152602001600020546134a090919063ffffffff16565b6008600089815260200190815260200160002060008d815260200190815260200160002081905550611afe82600960008a815260200190815260200160002060008e8152602001908152602001600020546134a090919063ffffffff16565b6009600089815260200190815260200160002060008d815260200190815260200160002081905550611b3d8689600701546134a090919063ffffffff16565b8860070181905550611b6e82611b60888b600801546134a090919063ffffffff16565b6134be90919063ffffffff16565b8860080181905550611ba48860010160009054906101000a900473ffffffffffffffffffffffffffffffffffffffff16866121da565b508a3373ffffffffffffffffffffffffffffffffffffffff167f566dc9a87d4b6b55d87da34b27c76d72aa03edee093aeb5a3caf5c68284326e48c6040518082815260200191505060405180910390a360019850505050505050505092915050565b600080600660003373ffffffffffffffffffffffffffffffffffffffff1673ffffffffffffffffffffffffffffffffffffffff16815260200190815260200160002054141515611cbe576040517f08c379a000000000000000000000000000000000000000000000000000000000815260040180806020018281038252601e8152602001807f637573746f6d65722070726576696f75736c792072656769737465726564000081525060200191505060405180910390fd5b600754600660003373ffffffffffffffffffffffffffffffffffffffff1673ffffffffffffffffffffffffffffffffffffffff1681526020019081526020016000208190555060016007600082825401925050819055506001905090565b6009602052816000526040600020602052806000526040600020600091509150505481565b600080600660008473ffffffffffffffffffffffffffffffffffffffff1673ffffffffffffffffffffffffffffffffffffffff168152602001908152602001600020541415611d935760009050611d98565b600190505b919050565b60008060008060028054905086101515611e1f576040517f08c379a000000000000000000000000000000000000000000000000000000000815260040180806020018281038252601a8152602001807f5f6d65726368616e74494420646f6573206e6f7420657869737400000000000081525060200191505060405180910390fd5b600286815481101515611e2e57fe5b90600052602060002090600c02019250600660003373ffffffffffffffffffffffffffffffffffffffff1673ffffffffffffffffffffffffffffffffffffffff16815260200190815260200160002054915084611edc600960008581526020019081526020016000206000898152602001908152602001600020546008600086815260200190815260200160002060008a8152602001908152602001600020546134a090919063ffffffff16565b10151515611f52576040517f08c379a000000000000000000000000000000000000000000000000000000000815260040180806020018281038252601c8152602001807f696e73756666696369656e7420766f75636865722062616c616e63650000000081525060200191505060405180910390fd5b611f698584600901546134a090919063ffffffff16565b8360090181905550846008600084815260200190815260200160002060008881526020019081526020016000205410151561200257611fd585600860008581526020019081526020016000206000898152602001908152602001600020546134be90919063ffffffff16565b60086000848152602001908152602001600020600088815260200190815260200160002081905550612113565b61203960086000848152602001908152602001600020600088815260200190815260200160002054866134be90919063ffffffff16565b905060006008600084815260200190815260200160002060008881526020019081526020016000208190555061209c81600960008581526020019081526020016000206000898152602001908152602001600020546134be90919063ffffffff16565b600960008481526020019081526020016000206000888152602001908152602001600020819055506120db8184600801546134a090919063ffffffff16565b83600801819055506121118360010160009054906101000a900473ffffffffffffffffffffffffffffffffffffffff16826121da565b505b853373ffffffffffffffffffffffffffffffffffffffff167f90a1e756583991105b90752f00c540cfe352e38a4450d00c353b74423b1c8221876040518082815260200191505060405180910390a36001935050505092915050565b60036020528160005260406000208181548110151561218a57fe5b9060005260206000209060030201600091509150508060000154908060010154908060020160009054906101000a900460ff16905083565b60046020528060005260406000206000915090505481565b600081600d60003373ffffffffffffffffffffffffffffffffffffffff1673ffffffffffffffffffffffffffffffffffffffff16815260200190815260200160002054101561222c5760009050612330565b81600d60003373ffffffffffffffffffffffffffffffffffffffff1673ffffffffffffffffffffffffffffffffffffffff1681526020019081526020016000206000828254039250508190555081600d60008573ffffffffffffffffffffffffffffffffffffffff1673ffffffffffffffffffffffffffffffffffffffff168152602001908152602001600020600082825401925050819055508273ffffffffffffffffffffffffffffffffffffffff163373ffffffffffffffffffffffffffffffffffffffff167fddf252ad1be2c89b69c2b068fc378daa952ba7f163c4a11628f55a4df523b3ef846040518082815260200191505060405180910390a3600190505b92915050565b60005481565b60028181548110151561234b57fe5b90600052602060002090600c0201600091509050806000018054600181600116156101000203166002900480601f0160208091040260200160405190810160405280929190818152602001828054600181600116156101000203166002900480156123f75780601f106123cc576101008083540402835291602001916123f7565b820191906000526020600020905b8154815290600101906020018083116123da57829003601f168201915b5050505050908060010160009054906101000a900473ffffffffffffffffffffffffffffffffffffffff169080600201549080600301549080600401549080600501549080600601549080600701549080600801549080600901549080600a01549080600b015490508c565b600a5481565b600080600660003373ffffffffffffffffffffffffffffffffffffffff1673ffffffffffffffffffffffffffffffffffffffff16815260200190815260200160002054111515612521576040517f08c379a00000000000000000000000000000000000000000000000000000000081526004018080602001828103825260168152602001807f596f7520617265206e6f7420617574686f72697365640000000000000000000081525060200191505060405180910390fd5b6000600660008473ffffffffffffffffffffffffffffffffffffffff1673ffffffffffffffffffffffffffffffffffffffff168152602001908152602001600020541415156125d8576040517f08c379a00000000000000000000000000000000000000000000000000000000081526004018080602001828103825260178152602001807f6164647220616c7265616479207265676973746572656400000000000000000081525060200191505060405180910390fd5b600660003373ffffffffffffffffffffffffffffffffffffffff1673ffffffffffffffffffffffffffffffffffffffff16815260200190815260200160002054600660008473ffffffffffffffffffffffffffffffffffffffff1673ffffffffffffffffffffffffffffffffffffffff1681526020019081526020016000208190555060019050919050565b60008060028481548110151561267657fe5b90600052602060002090600c020190503373ffffffffffffffffffffffffffffffffffffffff168160010160009054906101000a900473ffffffffffffffffffffffffffffffffffffffff1673ffffffffffffffffffffffffffffffffffffffff16141515612773576040517f08c379a00000000000000000000000000000000000000000000000000000000081526004018080602001828103825260218152602001807f796f7520617265206e6f7420746865206f726967696e616c206d65726368616e81526020017f740000000000000000000000000000000000000000000000000000000000000081525060400191505060405180910390fd5b828160010160006101000a81548173ffffffffffffffffffffffffffffffffffffffff021916908373ffffffffffffffffffffffffffffffffffffffff160217905550600191505092915050565b60006005548410151561283c576040517f08c379a000000000000000000000000000000000000000000000000000000000815260040180806020018281038252601a8152602001807f5f6d65726368616e74494420646f6573206e6f7420657869737400000000000081525060200191505060405180910390fd5b60075483111515156128b6576040517f08c379a000000000000000000000000000000000000000000000000000000000815260040180806020018281038252601a8152602001807f5f637573746f6d6572494420646f6573206e6f7420657869737400000000000081525060200191505060405180910390fd5b600360008481526020019081526020016000206060604051908101604052808681526020018481526020016000151581525090806001815401808255809150509060018203906000526020600020906003020160009091929091909150600082015181600001556020820151816001015560408201518160020160006101000a81548160ff021916908315150217905550505050837ff3ad8eb0aa9b80266616986ca268674b28b81ddb7bdcb9ffdf245791f2eb3f9c8484604051808381526020018281526020019250505060405180910390a2600190509392505050565b600080600660003373ffffffffffffffffffffffffffffffffffffffff1673ffffffffffffffffffffffffffffffffffffffff1681526020019081526020016000205414151515612a74576040517f08c379a00000000000000000000000000000000000000000000000000000000081526004018080602001828103825260228152602001807f637573746f6d6572206e6f742070726576696f75736c7920726567697374657281526020017f656400000000000000000000000000000000000000000000000000000000000081525060400191505060405180910390fd5b600660003373ffffffffffffffffffffffffffffffffffffffff1673ffffffffffffffffffffffffffffffffffffffff16815260200190815260200160002054600660008473ffffffffffffffffffffffffffffffffffffffff1673ffffffffffffffffffffffffffffffffffffffff168152602001908152602001600020819055506000600660003373ffffffffffffffffffffffffffffffffffffffff1673ffffffffffffffffffffffffffffffffffffffff1681526020019081526020016000208190555060019050919050565b600080600a548610151515612be8576040517f08c379a000000000000000000000000000000000000000000000000000000000815260040180806020018281038252602c8152602001807f5f616d6f756e744973737565642063616e6e6f74206265206c6f77657220746881526020017f616e206d696e416d6f756e74000000000000000000000000000000000000000081525060400191505060405180910390fd5b600b548410151515612c88576040517f08c379a00000000000000000000000000000000000000000000000000000000081526004018080602001828103825260228152602001807f5f646973636f756e742063616e6e6f74206265206c6f776572207468616e206681526020017f656500000000000000000000000000000000000000000000000000000000000081525060400191505060405180910390fd5b612c9c600a866134d790919063ffffffff16565b8610151515612d39576040517f08c379a00000000000000000000000000000000000000000000000000000000081526004018080602001828103825260318152602001807f5f6d696e4275792063616e6e6f7420626520686967686572207468616e20313081526020017f25206f6620616d6f756e7449737375656400000000000000000000000000000081525060400191505060405180910390fd5b600287815481101515612d4857fe5b90600052602060002090600c020190503373ffffffffffffffffffffffffffffffffffffffff168160010160009054906101000a900473ffffffffffffffffffffffffffffffffffffffff1673ffffffffffffffffffffffffffffffffffffffff16141515612e1f576040517f08c379a00000000000000000000000000000000000000000000000000000000081526004018080602001828103825260118152602001807f77726f6e67205f6d65726368616e74494400000000000000000000000000000081525060200191505060405180910390fd5b60008160050154141515612e9b576040517f08c379a00000000000000000000000000000000000000000000000000000000081526004018080602001828103825260188152602001807f4f666665722070726576696f75736c792063726561746564000000000000000081525060200191505060405180910390fd5b858160050181905550848160060181905550612ec2600b54856134be90919063ffffffff16565b81600a0181905550620151808302420181600b0181905550600191505095945050505050565b600080600660003373ffffffffffffffffffffffffffffffffffffffff1673ffffffffffffffffffffffffffffffffffffffff168152602001908152602001600020549050826008600083815260200190815260200160002060008781526020019081526020016000205410151515612fc9576040517f08c379a00000000000000000000000000000000000000000000000000000000081526004018080602001828103825260138152602001807f696e73756666696369656e74206372656469740000000000000000000000000081525060200191505060405180910390fd5b61300083600860008481526020019081526020016000206000888152602001908152602001600020546134be90919063ffffffff16565b6008600083815260200190815260200160002060008781526020019081526020016000208190555061305f83600860008781526020019081526020016000206000888152602001908152602001600020546134a090919063ffffffff16565b6008600086815260200190815260200160002060008781526020019081526020016000208190555080857fdded10b376ac3438f8e53e0832dcd6761f8fcae517fa95d57f93073c9af9c9a78686604051808381526020018281526020019250505060405180910390a360019150509392505050565b6000806000600660003373ffffffffffffffffffffffffffffffffffffffff1673ffffffffffffffffffffffffffffffffffffffff168152602001908152602001600020549150600660008673ffffffffffffffffffffffffffffffffffffffff1673ffffffffffffffffffffffffffffffffffffffff1681526020019081526020016000205490508360086000848152602001908152602001600020600088815260200190815260200160002054101515156131f9576040517f08c379a00000000000000000000000000000000000000000000000000000000081526004018080602001828103825260138152602001807f696e73756666696369656e74206372656469740000000000000000000000000081525060200191505060405180910390fd5b61323084600860008581526020019081526020016000206000898152602001908152602001600020546134be90919063ffffffff16565b6008600084815260200190815260200160002060008881526020019081526020016000208190555061328f84600860008481526020019081526020016000206000898152602001908152602001600020546134a090919063ffffffff16565b6008600083815260200190815260200160002060008881526020019081526020016000208190555081867fdded10b376ac3438f8e53e0832dcd6761f8fcae517fa95d57f93073c9af9c9a78387604051808381526020018281526020019250505060405180910390a36001925050509392505050565b600b5481565b60038151141515613384576040517f08c379a000000000000000000000000000000000000000000000000000000000815260040180806020018281038252601c8152602001807f5f72656d697474616e6365206c656e676874206d75737420626520330000000081525060200191505060405180910390fd5b806001908051906020019061339a9291906135ad565b5050565b6000806000806000600660003373ffffffffffffffffffffffffffffffffffffffff1673ffffffffffffffffffffffffffffffffffffffff16815260200190815260200160002054935060086000858152602001908152602001600020600087815260200190815260200160002054925060096000858152602001908152602001600020600087815260200190815260200160002054915061344982846134a090919063ffffffff16565b905080945050505050919050565b6000600d60008373ffffffffffffffffffffffffffffffffffffffff1673ffffffffffffffffffffffffffffffffffffffff168152602001908152602001600020549050919050565b60008082840190508381101515156134b457fe5b8091505092915050565b60008282111515156134cc57fe5b818303905092915050565b60008060008414156134ec576000915061350b565b82840290508284828115156134fd57fe5b0414151561350757fe5b8091505b5092915050565b600080828481151561352057fe5b0490508091505092915050565b828054600181600116156101000203166002900490600052602060002090601f016020900481019282601f1061356e57805160ff191683800117855561359c565b8280016001018555821561359c579182015b8281111561359b578251825591602001919060010190613580565b5b5090506135a991906135fa565b5090565b8280548282559060005260206000209081019282156135e9579160200282015b828111156135e85782518255916020019190600101906135cd565b5b5090506135f691906135fa565b5090565b61361c91905b80821115613618576000816000905550600101613600565b5090565b905600a165627a7a72305820bfe1941afe0810c0978f8cb329bb0baeb62bea69e25ae0c3b0af13390cd64d270029",
  "source": "pragma solidity ^0.4.24;\r\n\r\nimport \"./SafeMath.sol\";\r\n\r\ncontract Merchant {\r\n    using SafeMath for uint256;\r\n\r\n    uint256 public contractID;\r\n\r\n    enum HolderStatus { Unverified, Verified, Inactive, Blacklisted }\r\n    enum Roles { NoRole, Admin, Auditor, FundManager, Custodian, Trustee, Affiliate, Merchant }\r\n    enum Level { CC, BB, AA }   //change to merchantLevel (0-100%) :: mapping(address => uint) public merchantLevel;\r\n    uint[] public remittance;\r\n\r\n    struct Merchants {\r\n        string mName;\r\n        address mAddress;\r\n        uint mLevel;\r\n        uint directSales;\r\n        uint creditSales;\r\n        uint vIssued;\r\n        uint vMinBuy;\r\n        uint vSold;\r\n        uint vRemitted;\r\n        uint vRedeemed;\r\n        uint vDiscount;   // 500 for 5%\r\n        uint vTenor;       // in days        \r\n    }\r\n    Merchants[] public merchants;  //TO-DO: change to private\r\n\r\n    struct PaymentRequests {\r\n        uint merchantID;\r\n        uint amount;\r\n        bool paid;\r\n    }\r\n    mapping (uint => PaymentRequests[]) public request;\r\n    mapping (address => uint) public merchantID;\r\n\r\n    uint totalMerchants;\r\n    mapping (address => uint) public customers; \r\n    uint totalCustomers = 1;\r\n\r\n\r\n    mapping(uint => mapping(uint => uint)) public pdBalance;  //pdBalance[customeID][MerchantID]\r\n    mapping(uint => mapping(uint => uint)) public rtBalance;  //rtBalance[customerID][MerchantID]\r\n    uint public minAmount = 10000;\r\n   // uint public minDiscount;\r\n    uint public fee = 100; //1%\r\n    uint public feeDenominator = 10000; //100%\r\n    //uint public totalNoOfOffers;\r\n\r\n    event SetTokenAndRegistry(address indexed token, address indexed registry, uint256 contractID);\r\n    event VoucherBought(address indexed buyer, uint indexed merchantID, uint amount);\r\n    event VoucherRedeemed(address indexed buyer, uint indexed merchantID, uint amount);\r\n    event VoucherShared(uint256 indexed merchantID, uint indexed senderID, uint receiverID, uint amount);\r\n    event RequestRedemption(uint256 indexed merchantID, uint customerID, uint amount);\r\n\r\n\tmapping (address => uint) balances;\r\n\r\n\tevent Transfer(address indexed _from, address indexed _to, uint256 _value);\r\n\r\n    constructor() public {\r\n\t\tbalances[msg.sender] = 10000000;\r\n        remittance = [9000, 7500, 5000];\r\n        customers[0x7dd147674E79Df3f3b88c2BDfb1E4AF9Bc73C57A] = 1;\r\n        customers[0x04Ec558aa3205a74673902Ae754c87fc8D8cbed2] = 2;\r\n        totalCustomers = 3;\r\n\r\n        merchants.push(Merchants({\r\n            mName: \"Ego Owner\",\r\n            mAddress: 0x142e98a282aEa6ceEE893F4c1ad256068b1cd31E,\r\n            mLevel: 0,\r\n            directSales: 0,\r\n            creditSales: 0,\r\n            vIssued: 0,\r\n            vMinBuy: 0,\r\n            vSold: 0,\r\n            vRemitted: 0,\r\n            vRedeemed: 0,\r\n            vDiscount: 0,\r\n            vTenor: 0\r\n        }));\r\n\r\n        merchants.push(Merchants({\r\n            mName: \"Snal Snail Shop\",\r\n            mAddress: 0xaC515d20Ac2FDc7434cCe96AA5437e18d10762E5,\r\n            mLevel: 1,\r\n            directSales: 0,\r\n            creditSales: 0,\r\n            vIssued: 10000000,\r\n            vMinBuy: 10000,\r\n            vSold: 0,\r\n            vRemitted: 0,\r\n            vRedeemed: 0,\r\n            vDiscount: 500,\r\n            vTenor: 0\r\n        }));\r\n\r\n        merchants.push(Merchants({\r\n            mName: \"Farm Store Snail Shop\",\r\n            mAddress: 0x6d28E4BE25C5a12ba395C3a8AF84d7119562c743,\r\n            mLevel: 2,\r\n            directSales: 0,\r\n            creditSales: 0,\r\n            vIssued: 2000000,\r\n            vMinBuy: 2000,\r\n            vSold: 0,\r\n            vRemitted: 0,\r\n            vRedeemed: 0,\r\n            vDiscount: 700,\r\n            vTenor: 0\r\n        }));\r\n    }\r\n\r\n\tfunction sendCoin(address receiver, uint amount) public returns(bool sufficient) {\r\n\t\tif (balances[msg.sender] < amount) return false;\r\n\t\tbalances[msg.sender] -= amount;\r\n\t\tbalances[receiver] += amount;\r\n\t\temit Transfer(msg.sender, receiver, amount);\r\n\t\treturn true;\r\n\t}\r\n\r\n\tfunction getBalance(address addr) public view returns(uint) {\r\n\t\treturn balances[addr];\r\n\t}\r\n\r\n\tfunction getCustomerStatus(address addr) public view returns(bool) {\r\n\t\tif (customers[addr] == 0) return false;\r\n        return true;\r\n\t}\r\n\r\n    function addNewAddress(address addr) public returns(bool) {\r\n        require(customers[msg.sender] > 0, \"You are not authorised\");\r\n        require(customers[addr] == 0, \"addr already registered\");\r\n\t\tcustomers[addr] = customers[msg.sender];\r\n        return true;\r\n\t}\r\n\r\n    function setMinimums(uint _minAmount) public {\r\n        minAmount = _minAmount;\r\n    }\r\n\r\n    function setRemittance(uint[] _remittance) public {\r\n        require(_remittance.length == 3, \"_remittance lenght must be 3\");\r\n        remittance = _remittance;\r\n    }\r\n\r\n    function newMarchant(string _mName, address _owner, uint _level) public returns (bool) {\r\n        require(_level < 3, \"_level either 0, 1, or 2\");\r\n       // Merchants storage m = merchants[totalMerchants];\r\n        //TO-DO: add _owner to registry, set _owenr as registered\r\n        require(merchantID[_owner] == 0, \"merchant previously added\");\r\n        merchantID[_owner] = merchants.length;\r\n        merchants.push(Merchants({\r\n            mName: _mName,\r\n            mAddress: _owner,\r\n            mLevel: _level,\r\n            directSales: 0,\r\n            creditSales: 0,\r\n            vIssued: 0,\r\n            vMinBuy: 0,\r\n            vSold: 0,\r\n            vRemitted: 0,\r\n            vRedeemed: 0,\r\n            vDiscount: 0,\r\n            vTenor: 0\r\n        }));\r\n        \r\n        return true;\r\n    }\r\n\r\n    function changeMerchantAddress(uint _merchantID, address _newAddress) public returns (bool) {\r\n        Merchants storage m = merchants[_merchantID];\r\n        //TO-DO: add _owner to registry\r\n        require(m.mAddress == msg.sender, \"you are not the original merchant\");\r\n        m.mAddress = _newAddress;\r\n        return true;\r\n    }   \r\n\r\n    function newCustomer() public returns (bool) {\r\n        require(customers[msg.sender] == 0, \"customer previously registered\");\r\n        customers[msg.sender] = totalCustomers;\r\n        totalCustomers += 1;\r\n        return true;\r\n    }    \r\n\r\n    function changeCustomerAddress(address _newAddress) public returns (bool) {\r\n        require(customers[msg.sender] != 0, \"customer not previously registered\");\r\n        customers[_newAddress] = customers[msg.sender];\r\n        customers[msg.sender] = 0;\r\n        return true;\r\n    }    \r\n\r\n    function createOffers(uint _merchantID, uint _amountIssued, uint _minBuy, uint _discount, uint _tenorDays) public returns (bool){\r\n        require(_amountIssued >= minAmount, \"_amountIssued cannot be lower than minAmount\");\r\n        require(_discount >= fee, \"_discount cannot be lower than fee\");  //javascript\r\n        require(_amountIssued >= _minBuy.mul(10), \"_minBuy cannot be higher than 10% of amountIssued\");\r\n        Merchants storage m = merchants[_merchantID];\r\n        require(m.mAddress == msg.sender, \"wrong _merchantID\");   //TO-DO: use modifier\r\n        require(m.vIssued == 0, \"Offer previously created\");\r\n        m.vIssued = _amountIssued;\r\n        m.vMinBuy = _minBuy;\r\n        m.vDiscount = _discount.sub(fee);\r\n        m.vTenor = block.timestamp + _tenorDays * 1 days;\r\n        //totalNoOfOffers += 1;\r\n        return true;\r\n    }\r\n\r\n    function reviseOffers(uint _merchantID, uint _rAmountIssued, uint _rMinBuy, uint _rDiscount, uint _rTenorDays) public {\r\n        Merchants storage m = merchants[_merchantID];\r\n        require(_rAmountIssued >= minAmount, \"_amountIssued cannot be lower than minAmount/m.vIssued\");\r\n        require(_rAmountIssued >= m.vSold, \"_amountIssued cannot be lower than already sold voucher\");\r\n        require(_rDiscount >= fee, \"_discount cannot be lower than fee\");\r\n        require(_rAmountIssued >= _rMinBuy.mul(10), \"_minBuy cannot be higher than 10% of amountIssued\");\r\n        require(m.mAddress == msg.sender, \"wrong _merchantID\");   //TO-DO: use modifier\r\n        m.vIssued = _rAmountIssued;\r\n        m.vMinBuy = _rMinBuy;\r\n        m.vDiscount = _rDiscount.sub(fee);\r\n        m.vTenor = block.timestamp + _rTenorDays * 1 days;\r\n        //totalNoOfOffers += 1;\r\n    }\r\n\r\n    //to buy or topUp voucher\r\n    function buyVoucher(uint _merchantID, uint _amount) public returns (bool) {\r\n        Merchants storage m = merchants[_merchantID];\r\n        uint _customerID = customers[msg.sender]; \r\n        uint amount = _amount;\r\n        uint price = amount.sub(amount.mul(m.vDiscount).div(feeDenominator));\r\n        uint platformFee = amount.mul(fee).div(feeDenominator);\r\n        uint receivable = price.sub(platformFee);\r\n        uint retained = receivable.mul(feeDenominator.sub(remittance[uint(m.mLevel)])).div(feeDenominator);\r\n        uint pdBought = amount.sub(retained);\r\n        pdBalance[_customerID][_merchantID] = pdBalance[_customerID][_merchantID].add(pdBought);\r\n        rtBalance[_customerID][_merchantID] = rtBalance[_customerID][_merchantID].add(retained);\r\n        m.vSold = m.vSold.add(amount);\r\n        m.vRemitted = m.vRemitted.add(amount).sub(retained);\r\n        sendCoin(m.mAddress, price);\r\n        emit VoucherBought(msg.sender, _merchantID, _amount); //TO-Do: change to _merchantID, uint _offerID\r\n        return true;\r\n    }\r\n\r\n    //to be used for online purchases\r\n    function redeemVoucherOnline(uint _merchantID, uint _amount) public returns (bool) {\r\n        require(_merchantID < merchants.length, \"_merchantID does not exist\"); \r\n        Merchants storage m = merchants[_merchantID];\r\n        uint _cID = customers[msg.sender]; \r\n        require(pdBalance[_cID][_merchantID].add(rtBalance[_cID][_merchantID]) >= _amount, \"insufficient voucher balance\");\r\n        m.vRedeemed = m.vRedeemed.add(_amount);\r\n        if (pdBalance[_cID][_merchantID] >= _amount) {\r\n            pdBalance[_cID][_merchantID] = pdBalance[_cID][_merchantID].sub(_amount);\r\n        } else {\r\n            uint remain = _amount.sub(pdBalance[_cID][_merchantID]);\r\n            pdBalance[_cID][_merchantID] = 0;\r\n            rtBalance[_cID][_merchantID] = rtBalance[_cID][_merchantID].sub(remain);\r\n            m.vRemitted = m.vRemitted.add(remain);\r\n            sendCoin(m.mAddress, remain);\r\n        }\r\n        emit VoucherRedeemed(msg.sender, _merchantID, _amount);\r\n        return true;\r\n    }\r\n\r\n    //to be used in offline Stores\r\n    //To-Do: change modidifer to merchantAgent, add role\r\n    function requestRedemption(uint _merchantID, uint _customerID, uint _amount) public returns (bool) {\r\n        require(_merchantID < totalMerchants, \"_merchantID does not exist\"); \r\n        require(_customerID <= totalCustomers, \"_customerID does not exist\"); \r\n        request[_customerID].push(PaymentRequests({\r\n            merchantID: _merchantID,\r\n            amount: _amount,\r\n            paid: false\r\n        }));\r\n        emit RequestRedemption(_merchantID, _customerID, _amount);\r\n        return true;\r\n    }\r\n    //to be used for Instore purchases\r\n    //To-Do: change modidifer to merchantAgent, add role\r\n    function redeemVoucherInstore(uint _requestID) public returns (bool) {\r\n        uint _cID = customers[msg.sender]; \r\n        PaymentRequests storage r = request[_cID][_requestID];\r\n        Merchants storage m = merchants[r.merchantID];\r\n        require(!r.paid, \"request previously approved\");\r\n        r.paid = true;\r\n        require(pdBalance[_cID][r.merchantID].add(rtBalance[_cID][r.merchantID]) >= r.amount, \"insufficient voucher balance\");\r\n        m.vRedeemed = m.vRedeemed.add(r.amount);\r\n        if (pdBalance[_cID][r.merchantID] >= r.amount) {\r\n            pdBalance[_cID][r.merchantID] = pdBalance[_cID][r.merchantID].sub(r.amount);\r\n        } else {\r\n            uint remain = r.amount.sub(pdBalance[_cID][r.merchantID]);\r\n            pdBalance[_cID][r.merchantID] = 0;\r\n            rtBalance[_cID][r.merchantID] = rtBalance[_cID][r.merchantID].sub(remain);\r\n            m.vRemitted = m.vRemitted.add(remain);\r\n            sendCoin(m.mAddress, remain);\r\n        }\r\n        emit VoucherRedeemed(msg.sender, r.merchantID, r.amount);\r\n        return true;\r\n    }\r\n\r\n    //to share voucher with another customer\r\n    function shareVoucher(uint _merchantID, uint _receiverID, uint _amount) public returns (bool) {\r\n        uint _cID = customers[msg.sender]; \r\n        require(pdBalance[_cID][_merchantID] >= _amount, \"insufficient credit\");\r\n        pdBalance[_cID][_merchantID] = pdBalance[_cID][_merchantID].sub(_amount);  //TO-DO: pay fee\r\n        pdBalance[_receiverID][_merchantID] = pdBalance[_receiverID][_merchantID].add(_amount); \r\n        emit VoucherShared(_merchantID, _cID, _receiverID, _amount);\r\n        return true;\r\n    }\r\n\r\n    //TO_DO: Add to main contract\r\n    function shareVoucherWithAddress(uint _merchantID, address receiverAddr, uint _amount) public returns (bool) {\r\n        uint _cID = customers[msg.sender]; \r\n        uint _rID = customers[receiverAddr]; \r\n        require(pdBalance[_cID][_merchantID] >= _amount, \"insufficient credit\");\r\n        pdBalance[_cID][_merchantID] = pdBalance[_cID][_merchantID].sub(_amount);  //TO-DO: pay fee\r\n        pdBalance[_rID][_merchantID] = pdBalance[_rID][_merchantID].add(_amount); \r\n        emit VoucherShared(_merchantID, _cID, _rID, _amount);\r\n        return true;\r\n    }\r\n\r\n    function getVoucherDetailedBalances(uint _merchantID) public view returns (uint, uint, uint) {\r\n        uint _cID = customers[msg.sender]; \r\n        uint pd = pdBalance[_cID][_merchantID];\r\n        uint rt = rtBalance[_cID][_merchantID];\r\n        uint total = pd.add(rt);\r\n        return (pd, rt, total);\r\n    }    \r\n\r\n    function getVoucherBalances(uint _merchantID) public view returns (uint) {\r\n        uint _cID = customers[msg.sender]; \r\n        uint pd = pdBalance[_cID][_merchantID];\r\n        uint rt = rtBalance[_cID][_merchantID];\r\n        uint total = pd.add(rt);\r\n        return total;\r\n    }\r\n\r\n    function getCustomerId() public view returns (uint) {\r\n        return customers[msg.sender]; \r\n    }\r\n\r\n}",
  "sourcePath": "C:\\Users\\OYEMi\\Google Drive\\EGO Project\\AngularDapp\\dara\\contracts\\Merchant.sol",
  "compiler": {
    "name": "solc",
    "version": "0.4.24+commit.e67f0147.Emscripten.clang"
  },
  "schemaVersion": "2.0.1",
  "updatedAt": "2018-12-02T19:15:49.196Z"
}